{
  "_format": "hh-sol-artifact-1",
  "contractName": "MedicalCertificateNFT",
  "sourceName": "contracts/MedicalCertificateNFT.sol",
  "abi": [
    {
      "inputs": [],
      "stateMutability": "nonpayable",
      "type": "constructor"
    },
    {
      "inputs": [
        {
          "internalType": "address",
          "name": "sender",
          "type": "address"
        },
        {
          "internalType": "uint256",
          "name": "tokenId",
          "type": "uint256"
        },
        {
          "internalType": "address",
          "name": "owner",
          "type": "address"
        }
      ],
      "name": "ERC721IncorrectOwner",
      "type": "error"
    },
    {
      "inputs": [
        {
          "internalType": "address",
          "name": "operator",
          "type": "address"
        },
        {
          "internalType": "uint256",
          "name": "tokenId",
          "type": "uint256"
        }
      ],
      "name": "ERC721InsufficientApproval",
      "type": "error"
    },
    {
      "inputs": [
        {
          "internalType": "address",
          "name": "approver",
          "type": "address"
        }
      ],
      "name": "ERC721InvalidApprover",
      "type": "error"
    },
    {
      "inputs": [
        {
          "internalType": "address",
          "name": "operator",
          "type": "address"
        }
      ],
      "name": "ERC721InvalidOperator",
      "type": "error"
    },
    {
      "inputs": [
        {
          "internalType": "address",
          "name": "owner",
          "type": "address"
        }
      ],
      "name": "ERC721InvalidOwner",
      "type": "error"
    },
    {
      "inputs": [
        {
          "internalType": "address",
          "name": "receiver",
          "type": "address"
        }
      ],
      "name": "ERC721InvalidReceiver",
      "type": "error"
    },
    {
      "inputs": [
        {
          "internalType": "address",
          "name": "sender",
          "type": "address"
        }
      ],
      "name": "ERC721InvalidSender",
      "type": "error"
    },
    {
      "inputs": [
        {
          "internalType": "uint256",
          "name": "tokenId",
          "type": "uint256"
        }
      ],
      "name": "ERC721NonexistentToken",
      "type": "error"
    },
    {
      "inputs": [
        {
          "internalType": "address",
          "name": "owner",
          "type": "address"
        }
      ],
      "name": "OwnableInvalidOwner",
      "type": "error"
    },
    {
      "inputs": [
        {
          "internalType": "address",
          "name": "account",
          "type": "address"
        }
      ],
      "name": "OwnableUnauthorizedAccount",
      "type": "error"
    },
    {
      "anonymous": false,
      "inputs": [
        {
          "indexed": true,
          "internalType": "address",
          "name": "owner",
          "type": "address"
        },
        {
          "indexed": true,
          "internalType": "address",
          "name": "approved",
          "type": "address"
        },
        {
          "indexed": true,
          "internalType": "uint256",
          "name": "tokenId",
          "type": "uint256"
        }
      ],
      "name": "Approval",
      "type": "event"
    },
    {
      "anonymous": false,
      "inputs": [
        {
          "indexed": true,
          "internalType": "address",
          "name": "owner",
          "type": "address"
        },
        {
          "indexed": true,
          "internalType": "address",
          "name": "operator",
          "type": "address"
        },
        {
          "indexed": false,
          "internalType": "bool",
          "name": "approved",
          "type": "bool"
        }
      ],
      "name": "ApprovalForAll",
      "type": "event"
    },
    {
      "anonymous": false,
      "inputs": [
        {
          "indexed": true,
          "internalType": "address",
          "name": "previousOwner",
          "type": "address"
        },
        {
          "indexed": true,
          "internalType": "address",
          "name": "newOwner",
          "type": "address"
        }
      ],
      "name": "OwnershipTransferred",
      "type": "event"
    },
    {
      "anonymous": false,
      "inputs": [
        {
          "indexed": true,
          "internalType": "address",
          "name": "from",
          "type": "address"
        },
        {
          "indexed": true,
          "internalType": "address",
          "name": "to",
          "type": "address"
        },
        {
          "indexed": true,
          "internalType": "uint256",
          "name": "tokenId",
          "type": "uint256"
        }
      ],
      "name": "Transfer",
      "type": "event"
    },
    {
      "inputs": [
        {
          "internalType": "address",
          "name": "to",
          "type": "address"
        },
        {
          "internalType": "uint256",
          "name": "tokenId",
          "type": "uint256"
        }
      ],
      "name": "approve",
      "outputs": [],
      "stateMutability": "nonpayable",
      "type": "function"
    },
    {
      "inputs": [
        {
          "internalType": "address",
          "name": "owner",
          "type": "address"
        }
      ],
      "name": "balanceOf",
      "outputs": [
        {
          "internalType": "uint256",
          "name": "",
          "type": "uint256"
        }
      ],
      "stateMutability": "view",
      "type": "function"
    },
    {
      "inputs": [
        {
          "internalType": "uint256",
          "name": "tokenId",
          "type": "uint256"
        }
      ],
      "name": "getApproved",
      "outputs": [
        {
          "internalType": "address",
          "name": "",
          "type": "address"
        }
      ],
      "stateMutability": "view",
      "type": "function"
    },
    {
      "inputs": [
        {
          "internalType": "address",
          "name": "owner",
          "type": "address"
        },
        {
          "internalType": "address",
          "name": "operator",
          "type": "address"
        }
      ],
      "name": "isApprovedForAll",
      "outputs": [
        {
          "internalType": "bool",
          "name": "",
          "type": "bool"
        }
      ],
      "stateMutability": "view",
      "type": "function"
    },
    {
      "inputs": [
        {
          "internalType": "address",
          "name": "_runner",
          "type": "address"
        }
      ],
      "name": "mintMedicalCertificateNFT",
      "outputs": [],
      "stateMutability": "nonpayable",
      "type": "function"
    },
    {
      "inputs": [],
      "name": "name",
      "outputs": [
        {
          "internalType": "string",
          "name": "",
          "type": "string"
        }
      ],
      "stateMutability": "view",
      "type": "function"
    },
    {
      "inputs": [],
      "name": "owner",
      "outputs": [
        {
          "internalType": "address",
          "name": "",
          "type": "address"
        }
      ],
      "stateMutability": "view",
      "type": "function"
    },
    {
      "inputs": [
        {
          "internalType": "uint256",
          "name": "tokenId",
          "type": "uint256"
        }
      ],
      "name": "ownerOf",
      "outputs": [
        {
          "internalType": "address",
          "name": "",
          "type": "address"
        }
      ],
      "stateMutability": "view",
      "type": "function"
    },
    {
      "inputs": [],
      "name": "renounceOwnership",
      "outputs": [],
      "stateMutability": "nonpayable",
      "type": "function"
    },
    {
      "inputs": [
        {
          "internalType": "address",
          "name": "from",
          "type": "address"
        },
        {
          "internalType": "address",
          "name": "to",
          "type": "address"
        },
        {
          "internalType": "uint256",
          "name": "tokenId",
          "type": "uint256"
        }
      ],
      "name": "safeTransferFrom",
      "outputs": [],
      "stateMutability": "nonpayable",
      "type": "function"
    },
    {
      "inputs": [
        {
          "internalType": "address",
          "name": "from",
          "type": "address"
        },
        {
          "internalType": "address",
          "name": "to",
          "type": "address"
        },
        {
          "internalType": "uint256",
          "name": "tokenId",
          "type": "uint256"
        },
        {
          "internalType": "bytes",
          "name": "data",
          "type": "bytes"
        }
      ],
      "name": "safeTransferFrom",
      "outputs": [],
      "stateMutability": "nonpayable",
      "type": "function"
    },
    {
      "inputs": [
        {
          "internalType": "address",
          "name": "operator",
          "type": "address"
        },
        {
          "internalType": "bool",
          "name": "approved",
          "type": "bool"
        }
      ],
      "name": "setApprovalForAll",
      "outputs": [],
      "stateMutability": "nonpayable",
      "type": "function"
    },
    {
      "inputs": [
        {
          "internalType": "bytes4",
          "name": "interfaceId",
          "type": "bytes4"
        }
      ],
      "name": "supportsInterface",
      "outputs": [
        {
          "internalType": "bool",
          "name": "",
          "type": "bool"
        }
      ],
      "stateMutability": "view",
      "type": "function"
    },
    {
      "inputs": [],
      "name": "symbol",
      "outputs": [
        {
          "internalType": "string",
          "name": "",
          "type": "string"
        }
      ],
      "stateMutability": "view",
      "type": "function"
    },
    {
      "inputs": [
        {
          "internalType": "uint256",
          "name": "tokenId",
          "type": "uint256"
        }
      ],
      "name": "tokenURI",
      "outputs": [
        {
          "internalType": "string",
          "name": "",
          "type": "string"
        }
      ],
      "stateMutability": "view",
      "type": "function"
    },
    {
      "inputs": [
        {
          "internalType": "address",
          "name": "from",
          "type": "address"
        },
        {
          "internalType": "address",
          "name": "to",
          "type": "address"
        },
        {
          "internalType": "uint256",
          "name": "tokenId",
          "type": "uint256"
        }
      ],
      "name": "transferFrom",
      "outputs": [],
      "stateMutability": "nonpayable",
      "type": "function"
    },
    {
      "inputs": [
        {
          "internalType": "address",
          "name": "newOwner",
          "type": "address"
        }
      ],
      "name": "transferOwnership",
      "outputs": [],
      "stateMutability": "nonpayable",
      "type": "function"
    }
  ],
  "bytecode": "0x60806040523480156200001157600080fd5b50336040518060400160405280601781526020017f4d65646963616c204365727469666963617465204e46540000000000000000008152506040518060400160405280600581526020017f4d434e4654000000000000000000000000000000000000000000000000000000815250816000908162000090919062000472565b508060019081620000a2919062000472565b505050600073ffffffffffffffffffffffffffffffffffffffff168173ffffffffffffffffffffffffffffffffffffffff16036200011a5760006040517f1e4fbdf70000000000000000000000000000000000000000000000000000000081526004016200011191906200059e565b60405180910390fd5b6200012b816200013260201b60201c565b50620005bb565b6000600660009054906101000a900473ffffffffffffffffffffffffffffffffffffffff16905081600660006101000a81548173ffffffffffffffffffffffffffffffffffffffff021916908373ffffffffffffffffffffffffffffffffffffffff1602179055508173ffffffffffffffffffffffffffffffffffffffff168173ffffffffffffffffffffffffffffffffffffffff167f8be0079c531659141344cd1fd0a4f28419497f9722a3daafe3b4186f6b6457e060405160405180910390a35050565b600081519050919050565b7f4e487b7100000000000000000000000000000000000000000000000000000000600052604160045260246000fd5b7f4e487b7100000000000000000000000000000000000000000000000000000000600052602260045260246000fd5b600060028204905060018216806200027a57607f821691505b60208210810362000290576200028f62000232565b5b50919050565b60008190508160005260206000209050919050565b60006020601f8301049050919050565b600082821b905092915050565b600060088302620002fa7fffffffffffffffffffffffffffffffffffffffffffffffffffffffffffffffff82620002bb565b620003068683620002bb565b95508019841693508086168417925050509392505050565b6000819050919050565b6000819050919050565b6000620003536200034d62000347846200031e565b62000328565b6200031e565b9050919050565b6000819050919050565b6200036f8362000332565b620003876200037e826200035a565b848454620002c8565b825550505050565b600090565b6200039e6200038f565b620003ab81848462000364565b505050565b5b81811015620003d357620003c760008262000394565b600181019050620003b1565b5050565b601f8211156200042257620003ec8162000296565b620003f784620002ab565b8101602085101562000407578190505b6200041f6200041685620002ab565b830182620003b0565b50505b505050565b600082821c905092915050565b6000620004476000198460080262000427565b1980831691505092915050565b600062000462838362000434565b9150826002028217905092915050565b6200047d82620001f8565b67ffffffffffffffff81111562000499576200049862000203565b5b620004a5825462000261565b620004b2828285620003d7565b600060209050601f831160018114620004ea5760008415620004d5578287015190505b620004e1858262000454565b86555062000551565b601f198416620004fa8662000296565b60005b828110156200052457848901518255600182019150602085019450602081019050620004fd565b8683101562000544578489015162000540601f89168262000434565b8355505b6001600288020188555050505b505050505050565b600073ffffffffffffffffffffffffffffffffffffffff82169050919050565b6000620005868262000559565b9050919050565b620005988162000579565b82525050565b6000602082019050620005b560008301846200058d565b92915050565b61214a80620005cb6000396000f3fe608060405234801561001057600080fd5b506004361061010b5760003560e01c806370a08231116100a2578063a22cb46511610071578063a22cb465146102a4578063b88d4fde146102c0578063c87b56dd146102dc578063e985e9c51461030c578063f2fde38b1461033c5761010b565b806370a082311461022e578063715018a61461025e5780638da5cb5b1461026857806395d89b41146102865761010b565b806323b872dd116100de57806323b872dd146101aa5780633e842ce0146101c657806342842e0e146101e25780636352211e146101fe5761010b565b806301ffc9a71461011057806306fdde0314610140578063081812fc1461015e578063095ea7b31461018e575b600080fd5b61012a600480360381019061012591906118ee565b610358565b6040516101379190611936565b60405180910390f35b61014861043a565b60405161015591906119e1565b60405180910390f35b61017860048036038101906101739190611a39565b6104cc565b6040516101859190611aa7565b60405180910390f35b6101a860048036038101906101a39190611aee565b6104e8565b005b6101c460048036038101906101bf9190611b2e565b6104fe565b005b6101e060048036038101906101db9190611b81565b610600565b005b6101fc60048036038101906101f79190611b2e565b610648565b005b61021860048036038101906102139190611a39565b610668565b6040516102259190611aa7565b60405180910390f35b61024860048036038101906102439190611b81565b61067a565b6040516102559190611bbd565b60405180910390f35b610266610734565b005b610270610748565b60405161027d9190611aa7565b60405180910390f35b61028e610772565b60405161029b91906119e1565b60405180910390f35b6102be60048036038101906102b99190611c04565b610804565b005b6102da60048036038101906102d59190611d79565b61081a565b005b6102f660048036038101906102f19190611a39565b610837565b60405161030391906119e1565b60405180910390f35b61032660048036038101906103219190611dfc565b6108a0565b6040516103339190611936565b60405180910390f35b61035660048036038101906103519190611b81565b610934565b005b60007f80ac58cd000000000000000000000000000000000000000000000000000000007bffffffffffffffffffffffffffffffffffffffffffffffffffffffff1916827bffffffffffffffffffffffffffffffffffffffffffffffffffffffff1916148061042357507f5b5e139f000000000000000000000000000000000000000000000000000000007bffffffffffffffffffffffffffffffffffffffffffffffffffffffff1916827bffffffffffffffffffffffffffffffffffffffffffffffffffffffff1916145b806104335750610432826109ba565b5b9050919050565b60606000805461044990611e6b565b80601f016020809104026020016040519081016040528092919081815260200182805461047590611e6b565b80156104c25780601f10610497576101008083540402835291602001916104c2565b820191906000526020600020905b8154815290600101906020018083116104a557829003601f168201915b5050505050905090565b60006104d782610a24565b506104e182610aac565b9050919050565b6104fa82826104f5610ae9565b610af1565b5050565b600073ffffffffffffffffffffffffffffffffffffffff168273ffffffffffffffffffffffffffffffffffffffff16036105705760006040517f64a0ae920000000000000000000000000000000000000000000000000000000081526004016105679190611aa7565b60405180910390fd5b6000610584838361057f610ae9565b610b03565b90508373ffffffffffffffffffffffffffffffffffffffff168173ffffffffffffffffffffffffffffffffffffffff16146105fa578382826040517f64283d7b0000000000000000000000000000000000000000000000000000000081526004016105f193929190611e9c565b60405180910390fd5b50505050565b610608610d1d565b600042338360405160200161061f93929190611f3c565b6040516020818303038152906040528051906020012060001c90506106448282610da4565b5050565b6106638383836040518060200160405280600081525061081a565b505050565b600061067382610a24565b9050919050565b60008073ffffffffffffffffffffffffffffffffffffffff168273ffffffffffffffffffffffffffffffffffffffff16036106ed5760006040517f89c62b640000000000000000000000000000000000000000000000000000000081526004016106e49190611aa7565b60405180910390fd5b600360008373ffffffffffffffffffffffffffffffffffffffff1673ffffffffffffffffffffffffffffffffffffffff168152602001908152602001600020549050919050565b61073c610d1d565b6107466000610dc2565b565b6000600660009054906101000a900473ffffffffffffffffffffffffffffffffffffffff16905090565b60606001805461078190611e6b565b80601f01602080910402602001604051908101604052809291908181526020018280546107ad90611e6b565b80156107fa5780601f106107cf576101008083540402835291602001916107fa565b820191906000526020600020905b8154815290600101906020018083116107dd57829003601f168201915b5050505050905090565b61081661080f610ae9565b8383610e88565b5050565b6108258484846104fe565b61083184848484610ff7565b50505050565b606061084282610a24565b50600061084d6111ae565b9050600081511161086d5760405180602001604052806000815250610898565b80610877846111c5565b604051602001610888929190611fb5565b6040516020818303038152906040525b915050919050565b6000600560008473ffffffffffffffffffffffffffffffffffffffff1673ffffffffffffffffffffffffffffffffffffffff16815260200190815260200160002060008373ffffffffffffffffffffffffffffffffffffffff1673ffffffffffffffffffffffffffffffffffffffff16815260200190815260200160002060009054906101000a900460ff16905092915050565b61093c610d1d565b600073ffffffffffffffffffffffffffffffffffffffff168173ffffffffffffffffffffffffffffffffffffffff16036109ae5760006040517f1e4fbdf70000000000000000000000000000000000000000000000000000000081526004016109a59190611aa7565b60405180910390fd5b6109b781610dc2565b50565b60007f01ffc9a7000000000000000000000000000000000000000000000000000000007bffffffffffffffffffffffffffffffffffffffffffffffffffffffff1916827bffffffffffffffffffffffffffffffffffffffffffffffffffffffff1916149050919050565b600080610a3083611293565b9050600073ffffffffffffffffffffffffffffffffffffffff168173ffffffffffffffffffffffffffffffffffffffff1603610aa357826040517f7e273289000000000000000000000000000000000000000000000000000000008152600401610a9a9190611bbd565b60405180910390fd5b80915050919050565b60006004600083815260200190815260200160002060009054906101000a900473ffffffffffffffffffffffffffffffffffffffff169050919050565b600033905090565b610afe83838360016112d0565b505050565b600080610b0f84611293565b9050600073ffffffffffffffffffffffffffffffffffffffff168373ffffffffffffffffffffffffffffffffffffffff1614610b5157610b50818486611495565b5b600073ffffffffffffffffffffffffffffffffffffffff168173ffffffffffffffffffffffffffffffffffffffff1614610be257610b936000856000806112d0565b6001600360008373ffffffffffffffffffffffffffffffffffffffff1673ffffffffffffffffffffffffffffffffffffffff168152602001908152602001600020600082825403925050819055505b600073ffffffffffffffffffffffffffffffffffffffff168573ffffffffffffffffffffffffffffffffffffffff1614610c65576001600360008773ffffffffffffffffffffffffffffffffffffffff1673ffffffffffffffffffffffffffffffffffffffff168152602001908152602001600020600082825401925050819055505b846002600086815260200190815260200160002060006101000a81548173ffffffffffffffffffffffffffffffffffffffff021916908373ffffffffffffffffffffffffffffffffffffffff160217905550838573ffffffffffffffffffffffffffffffffffffffff168273ffffffffffffffffffffffffffffffffffffffff167fddf252ad1be2c89b69c2b068fc378daa952ba7f163c4a11628f55a4df523b3ef60405160405180910390a4809150509392505050565b610d25610ae9565b73ffffffffffffffffffffffffffffffffffffffff16610d43610748565b73ffffffffffffffffffffffffffffffffffffffff1614610da257610d66610ae9565b6040517f118cdaa7000000000000000000000000000000000000000000000000000000008152600401610d999190611aa7565b60405180910390fd5b565b610dbe828260405180602001604052806000815250611559565b5050565b6000600660009054906101000a900473ffffffffffffffffffffffffffffffffffffffff16905081600660006101000a81548173ffffffffffffffffffffffffffffffffffffffff021916908373ffffffffffffffffffffffffffffffffffffffff1602179055508173ffffffffffffffffffffffffffffffffffffffff168173ffffffffffffffffffffffffffffffffffffffff167f8be0079c531659141344cd1fd0a4f28419497f9722a3daafe3b4186f6b6457e060405160405180910390a35050565b600073ffffffffffffffffffffffffffffffffffffffff168273ffffffffffffffffffffffffffffffffffffffff1603610ef957816040517f5b08ba18000000000000000000000000000000000000000000000000000000008152600401610ef09190611aa7565b60405180910390fd5b80600560008573ffffffffffffffffffffffffffffffffffffffff1673ffffffffffffffffffffffffffffffffffffffff16815260200190815260200160002060008473ffffffffffffffffffffffffffffffffffffffff1673ffffffffffffffffffffffffffffffffffffffff16815260200190815260200160002060006101000a81548160ff0219169083151502179055508173ffffffffffffffffffffffffffffffffffffffff168373ffffffffffffffffffffffffffffffffffffffff167f17307eab39ab6107e8899845ad3d59bd9653f200f220920489ca2b5937696c3183604051610fea9190611936565b60405180910390a3505050565b60008373ffffffffffffffffffffffffffffffffffffffff163b11156111a8578273ffffffffffffffffffffffffffffffffffffffff1663150b7a0261103b610ae9565b8685856040518563ffffffff1660e01b815260040161105d949392919061202e565b6020604051808303816000875af192505050801561109957506040513d601f19601f82011682018060405250810190611096919061208f565b60015b61111d573d80600081146110c9576040519150601f19603f3d011682016040523d82523d6000602084013e6110ce565b606091505b50600081510361111557836040517f64a0ae9200000000000000000000000000000000000000000000000000000000815260040161110c9190611aa7565b60405180910390fd5b805181602001fd5b63150b7a0260e01b7bffffffffffffffffffffffffffffffffffffffffffffffffffffffff1916817bffffffffffffffffffffffffffffffffffffffffffffffffffffffff1916146111a657836040517f64a0ae9200000000000000000000000000000000000000000000000000000000815260040161119d9190611aa7565b60405180910390fd5b505b50505050565b606060405180602001604052806000815250905090565b6060600060016111d484611575565b01905060008167ffffffffffffffff8111156111f3576111f2611c4e565b5b6040519080825280601f01601f1916602001820160405280156112255781602001600182028036833780820191505090505b509050600082602001820190505b600115611288578080600190039150507f3031323334353637383961626364656600000000000000000000000000000000600a86061a8153600a858161127c5761127b6120bc565b5b04945060008503611233575b819350505050919050565b60006002600083815260200190815260200160002060009054906101000a900473ffffffffffffffffffffffffffffffffffffffff169050919050565b80806113095750600073ffffffffffffffffffffffffffffffffffffffff168273ffffffffffffffffffffffffffffffffffffffff1614155b1561143d57600061131984610a24565b9050600073ffffffffffffffffffffffffffffffffffffffff168373ffffffffffffffffffffffffffffffffffffffff161415801561138457508273ffffffffffffffffffffffffffffffffffffffff168173ffffffffffffffffffffffffffffffffffffffff1614155b8015611397575061139581846108a0565b155b156113d957826040517fa9fbf51f0000000000000000000000000000000000000000000000000000000081526004016113d09190611aa7565b60405180910390fd5b811561143b57838573ffffffffffffffffffffffffffffffffffffffff168273ffffffffffffffffffffffffffffffffffffffff167f8c5be1e5ebec7d5bd14f71427d1e84f3dd0314c0f7b2291e5b200ac8c7c3b92560405160405180910390a45b505b836004600085815260200190815260200160002060006101000a81548173ffffffffffffffffffffffffffffffffffffffff021916908373ffffffffffffffffffffffffffffffffffffffff16021790555050505050565b6114a08383836116c8565b61155457600073ffffffffffffffffffffffffffffffffffffffff168373ffffffffffffffffffffffffffffffffffffffff160361151557806040517f7e27328900000000000000000000000000000000000000000000000000000000815260040161150c9190611bbd565b60405180910390fd5b81816040517f177e802f00000000000000000000000000000000000000000000000000000000815260040161154b9291906120eb565b60405180910390fd5b505050565b6115638383611789565b6115706000848484610ff7565b505050565b600080600090507a184f03e93ff9f4daa797ed6e38ed64bf6a1f01000000000000000083106115d3577a184f03e93ff9f4daa797ed6e38ed64bf6a1f01000000000000000083816115c9576115c86120bc565b5b0492506040810190505b6d04ee2d6d415b85acef81000000008310611610576d04ee2d6d415b85acef81000000008381611606576116056120bc565b5b0492506020810190505b662386f26fc10000831061163f57662386f26fc100008381611635576116346120bc565b5b0492506010810190505b6305f5e1008310611668576305f5e100838161165e5761165d6120bc565b5b0492506008810190505b612710831061168d576127108381611683576116826120bc565b5b0492506004810190505b606483106116b057606483816116a6576116a56120bc565b5b0492506002810190505b600a83106116bf576001810190505b80915050919050565b60008073ffffffffffffffffffffffffffffffffffffffff168373ffffffffffffffffffffffffffffffffffffffff161415801561178057508273ffffffffffffffffffffffffffffffffffffffff168473ffffffffffffffffffffffffffffffffffffffff161480611741575061174084846108a0565b5b8061177f57508273ffffffffffffffffffffffffffffffffffffffff1661176783610aac565b73ffffffffffffffffffffffffffffffffffffffff16145b5b90509392505050565b600073ffffffffffffffffffffffffffffffffffffffff168273ffffffffffffffffffffffffffffffffffffffff16036117fb5760006040517f64a0ae920000000000000000000000000000000000000000000000000000000081526004016117f29190611aa7565b60405180910390fd5b600061180983836000610b03565b9050600073ffffffffffffffffffffffffffffffffffffffff168173ffffffffffffffffffffffffffffffffffffffff161461187d5760006040517f73c6ac6e0000000000000000000000000000000000000000000000000000000081526004016118749190611aa7565b60405180910390fd5b505050565b6000604051905090565b600080fd5b600080fd5b60007fffffffff0000000000000000000000000000000000000000000000000000000082169050919050565b6118cb81611896565b81146118d657600080fd5b50565b6000813590506118e8816118c2565b92915050565b6000602082840312156119045761190361188c565b5b6000611912848285016118d9565b91505092915050565b60008115159050919050565b6119308161191b565b82525050565b600060208201905061194b6000830184611927565b92915050565b600081519050919050565b600082825260208201905092915050565b60005b8381101561198b578082015181840152602081019050611970565b60008484015250505050565b6000601f19601f8301169050919050565b60006119b382611951565b6119bd818561195c565b93506119cd81856020860161196d565b6119d681611997565b840191505092915050565b600060208201905081810360008301526119fb81846119a8565b905092915050565b6000819050919050565b611a1681611a03565b8114611a2157600080fd5b50565b600081359050611a3381611a0d565b92915050565b600060208284031215611a4f57611a4e61188c565b5b6000611a5d84828501611a24565b91505092915050565b600073ffffffffffffffffffffffffffffffffffffffff82169050919050565b6000611a9182611a66565b9050919050565b611aa181611a86565b82525050565b6000602082019050611abc6000830184611a98565b92915050565b611acb81611a86565b8114611ad657600080fd5b50565b600081359050611ae881611ac2565b92915050565b60008060408385031215611b0557611b0461188c565b5b6000611b1385828601611ad9565b9250506020611b2485828601611a24565b9150509250929050565b600080600060608486031215611b4757611b4661188c565b5b6000611b5586828701611ad9565b9350506020611b6686828701611ad9565b9250506040611b7786828701611a24565b9150509250925092565b600060208284031215611b9757611b9661188c565b5b6000611ba584828501611ad9565b91505092915050565b611bb781611a03565b82525050565b6000602082019050611bd26000830184611bae565b92915050565b611be18161191b565b8114611bec57600080fd5b50565b600081359050611bfe81611bd8565b92915050565b60008060408385031215611c1b57611c1a61188c565b5b6000611c2985828601611ad9565b9250506020611c3a85828601611bef565b9150509250929050565b600080fd5b600080fd5b7f4e487b7100000000000000000000000000000000000000000000000000000000600052604160045260246000fd5b611c8682611997565b810181811067ffffffffffffffff82111715611ca557611ca4611c4e565b5b80604052505050565b6000611cb8611882565b9050611cc48282611c7d565b919050565b600067ffffffffffffffff821115611ce457611ce3611c4e565b5b611ced82611997565b9050602081019050919050565b82818337600083830152505050565b6000611d1c611d1784611cc9565b611cae565b905082815260208101848484011115611d3857611d37611c49565b5b611d43848285611cfa565b509392505050565b600082601f830112611d6057611d5f611c44565b5b8135611d70848260208601611d09565b91505092915050565b60008060008060808587031215611d9357611d9261188c565b5b6000611da187828801611ad9565b9450506020611db287828801611ad9565b9350506040611dc387828801611a24565b925050606085013567ffffffffffffffff811115611de457611de3611891565b5b611df087828801611d4b565b91505092959194509250565b60008060408385031215611e1357611e1261188c565b5b6000611e2185828601611ad9565b9250506020611e3285828601611ad9565b9150509250929050565b7f4e487b7100000000000000000000000000000000000000000000000000000000600052602260045260246000fd5b60006002820490506001821680611e8357607f821691505b602082108103611e9657611e95611e3c565b5b50919050565b6000606082019050611eb16000830186611a98565b611ebe6020830185611bae565b611ecb6040830184611a98565b949350505050565b6000819050919050565b611eee611ee982611a03565b611ed3565b82525050565b60008160601b9050919050565b6000611f0c82611ef4565b9050919050565b6000611f1e82611f01565b9050919050565b611f36611f3182611a86565b611f13565b82525050565b6000611f488286611edd565b602082019150611f588285611f25565b601482019150611f688284611f25565b601482019150819050949350505050565b600081905092915050565b6000611f8f82611951565b611f998185611f79565b9350611fa981856020860161196d565b80840191505092915050565b6000611fc18285611f84565b9150611fcd8284611f84565b91508190509392505050565b600081519050919050565b600082825260208201905092915050565b600061200082611fd9565b61200a8185611fe4565b935061201a81856020860161196d565b61202381611997565b840191505092915050565b60006080820190506120436000830187611a98565b6120506020830186611a98565b61205d6040830185611bae565b818103606083015261206f8184611ff5565b905095945050505050565b600081519050612089816118c2565b92915050565b6000602082840312156120a5576120a461188c565b5b60006120b38482850161207a565b91505092915050565b7f4e487b7100000000000000000000000000000000000000000000000000000000600052601260045260246000fd5b60006040820190506121006000830185611a98565b61210d6020830184611bae565b939250505056fea26469706673582212206470b32f4b98dae7ca0375735c5706b9cd463a0f9286b2c6e1f9a4d0f041146664736f6c63430008180033",
  "linkReferences": {},
  "deployedLinkReferences": {}
}